:020000040000FA
:030000000200E318
:030013000210D305
:03003300021005B3
:03003B0002112F80
:03006B00020EE59D
:03007B00020F75FC
:1000830002109500000080FB120113B90003020067
:10009300CDE490030178C779028002F0A3D8FCD99C
:1000A300FA9004C7AA82AB839001167886790180FF
:1000B30015E493A3AC82AD838A828B83F0A3AA82D7
:1000C300AB838C828D83D8E9D9E775825A758322F5
:1000D30074001200F575828675830074001200F5B2
:1000E30075D00075813F751001751103759F00026E
:1000F300008BC09FF59FE473D09F22D083D082C032
:100103009FE493C0E0740193C0E0740293F59F22CF
:10011300790122FF00000000000000000000000041
:1001230000000000C2010046412030302046420A50
:10013300004641203025782046420A0046412025CA
:10014300782046420A00DB04004B00000A0000004E
:1001530030313233343536373839414243444546FA
:1001630000286E756C6C20706F696E74657229005F
:100173003F3F3F000000807F0000803FF9021550A1
:10018300B743BA510000204100E7DB2E0000A04036
:1001930010000000080000001200FE0C27001200EF
:1001A300FE2928001200FEB228001200FEC2280019
:1001B3001200FE6B29001200FE892B001200FE5371
:1001C3002B001200FEB32B001200FEB82B0012000E
:1001D300FEA32B001200FE7F29001200FEAE2900B1
:1001E3001200FEB329001200FEC929001200FEE02E
:1001F30029001200FEF729001200FE1B2A0012003C
:10020300FE242A001200FE392A001200FE4E2A00A4
:100213001200FE7924001200FE8625001200FEEB78
:1002230025001200FEC026001200FEE52100120088
:10023300FE2022001200FE0D2B001200FE6D2A008C
:100243001200FE972A001200FE9611001200FEB45F
:100253001600E4936670130874019366700C0874B7
:100263000293667005087403936622C008C3E09680
:10027300F50808A3E096420808A3E096420808A3FD
:10028300E0964208A2D265D033E5087001D3D008C6
:1002930022C3E49396087401939608740293960814
:1002A3007403939622080808E630E711120AE41251
:1002B30002C0080808C64480C6181818221818185F
:1002C300E9799EC608CAC608CBC608CCC6C3702047
:1002D3007996CACBCC7019798ECBCC70137986CC36
:1002E300700EF9802ACA33CACB33CBCC33CC331943
:1002F30030E7F2CCCBCA3350147004EA30E00DE49B
:10030300CA3ACACB3BCBCC3CCC500209C3E913C697
:10031300CC182313C6CB18C6CA18C6F92212036019
:1003230020F01430E72B74FFFCFBFA747F8022E487
:10033300FCFBFA7480801AB48008BC00F2BB00EFA7
:10034300800F50EBF9E4C39AFAE49BFBE49CFCE4D2
:1003530099C6CC18C6CB18C6CA18C6F922E4C9C6B2
:1003630008CAC608CBC6D3330308CCC63392F0C33E
:10037300947F402E94184019C9B90704CACBCC22E4
:100383005025C309CA33CACB33CBCC33CC33D9F4CE
:1003930022F4600DC9CCC313CB13CBCA13CAD9F64D
:1003A300CC22E4FCFBFA2214FCFBFA22E6C333184A
:1003B300461846184622E7C33319471947194722F7
:1003C300181818E6084608700AE608C3337005E6ED
:1003D30033F4220822191919E7094709700AE709B2
:1003E300C3337005E733F4220922E6084608C31332
:1003F3004608336002E633F422E7094709C313478B
:1004030009336002E733F4221203ED60251203FC83
:1004130060201203AF70030203B9080808E766708F
:10042300101819E766700A1819E76670041819E7B7
:100433006622F4221203ED601C1203FC6017120300
:10044300AF70071203B97001D322C0D01203B97081
:1004530006D0D0B322C32233D0D0501430E0F6C339
:10046300E7960809E7960809E7960809E796B3228D
:1004730020E0D5E6970809E6970809E6970809E614
:1004830097B3221203ED601B1203FC60161203AF35
:1004930070071203B9600CB322C0D01203B9700500
:1004A300D0D022C32233D0D0501330E0EBC3E79631
:1004B3000809E7960809E7960809E7962220E0E489
:1004C300E6970809E6970809E6970809E6972200E0
:1004D3001203ED604F1203FC6012E7548066F612BC
:1004E30003C370111203B9703B090909F4F618F636
:1004F30018F618F6221203D870151203AF0808086D
:1005030060EAE6447FF618768018E4F618F62212BD
:1005130003AF60161203B97012E4F608F608F60882
:10052300E65480F609090918181822EAC0E0EBC05E
:10053300E0ECC0E0EDC0E0E687F0A4FBACF008E639
:1005430087F0A42CFCE435F0FA1809E687F0A42C14
:100553004B60027401CA35F0FCE433FB09E687F013
:10056300D2F7A42CCB35F0FC1908E687F0A42BCCEA
:1005730035F0FBE433FD0819E687F0D2E7A42C4AF3
:10058300CB35F0CD3400FC09E687F0D2E7A42DCCBF
:1005930035F0FDE433FA0918E687F0D2F7A42CCD41
:1005A30035F0CA3400FC08E687F0D2E7D2F7A42A74
:1005B300CC35F07A7E20E70B0ACB33CBCD33CDCCD1
:1005C30033CC33CB3350147004ED30E00ED2F1E46E
:1005D300CD3DCDCC3CCC3B5005DA05C2F1EB547F8D
:1005E300C63308E63392F0FBE73309E733C39A5087
:1005F3002D2B70190C0D4C4D70151806E608C333DE
:10060300700D20F10AA2F013F6E418800B4024E4E5
:10061300F630F002768018F618F618F68024D33BED
:1006230014501074FFA2F013F6187680E418F6182D
:10063300F6800FA2F013F618E63303F618ECF6185B
:10064300EDF6D0E0FDD0E0FCD0E0FBD0E0FA2212E2
:1006530003FC60461203ED603DE9687008F618F686
:1006630018F618F622748067F712068609090974CA
:100673008067F7221203ED601D1203FC7005191940
:1006830019801A1203C3701F1203D8C37003E667DD
:100693003319191940071818182208080874FFF6A7
:1006A30018F618F618F6221203D860171203B97059
:1006B3002192F01203AF7019501720F014080808A4
:1006C300090909E7F61819E7F61819E7F61819E7FB
:1006D300F6221203AF60E6E869701F0808E624807B
:1006E300F608E436F618547FB47F0CE654806007AE
:1006F300F6E418F618F622181822E9C6CC08C6CD77
:1007030008C6CE08C6CFC0E0E8C0E0EAC0E0EBC050
:10071300E009E9F809E7FA09E7FBE6F918E6F8C39F
:10072300EC98ED99EE9AEBC2E7F5F0EFC2E795F09E
:10073300500E600CEBCFFBEACEFAE9CDF9E8CCF82A
:10074300EAA2E7D2E7FAEB33FB13F5F0EEA2E7D226
:10075300E7FEEF33FFC5F013A2E730E601B313C59D
:10076300F0C3C0E0C0F07F00C39BFB605B941860E4
:100773000C401AD0E023F9D0E0F80208558AF0E9DA
:10078300486003D2F0E4AFF0FAF9F8803BEB30E4D1
:100793000D89F0EA6003D2F0E4AFF0F9CAF8EB3068
:1007A300E30D88F0EF6002D2F0AFF0E4CAC9F8EBD2
:1007B30054076014FBC3EA13FAE913F9E813F8EFDB
:1007C300135002D2E0FFDBEDD0E0C0E030E739C3E5
:1007D300E49FFFF5F0EC98FC42F0ED99FD42F0EE5A
:1007E3009AFE42F0D0E0F9D0E0F8E5F0607AE92330
:1007F300F9EE20E742D8028067C3EF33FFEC33FC06
:10080300ED33FDEE33FE80EAEC28FCED39FDEE3AE4
:10081300FED0E023F9D0E0F84002801BC3EE13FEC4
:10082300ED13FDEC13FCEF135002D2E0FF08B80008
:10083300067F7F74FF802EEF3350178CF020F00279
:1008430060100CBC000C0DBD00080EBE000408E8CF
:1008530060DFE933E813FFEE2313FE4F4D4C8008AE
:10086300E95480FFE4FEFDFCEE33EF33F47004FC47
:10087300FD7E80D0E0FBD0E0FAD0E0F8D0E0CFC638
:1008830018CEC618CDC618CCC6F9221203ED7004D3
:10089300181818221203FC700D74FFF61819F618B5
:1008A30019F61819F622E7548066F61203AF700F93
:1008B3001203B970F014F608F608F608F680D112A0
:1008C30003B9700CF608F608768008E6447F80ECDE
:1008D3001203DB700C1203C660BFE65480F6E4809B
:1008E300BB1203C6700519191980A5E869700C7647
:1008F3003F18768018F618F6E8F922E6CDC0E0181E
:10090300ECC0E0E633CD33CDD313F6E719FCE7199A
:100913001933CC33C3947F400ECD9D502408E65445
:1009230080F6E418F6800FF4043D14501408E644EE
:100933007FF6187680E418F618F6D0E0FCD0E0FDD8
:1009430022CCD313CCFD18E4C6CBC0E018E4C6CA4E
:10095300C0E00808ED08C633E613F618E433C6759D
:10096300F003C3CA97CA09CB97CB199C40047D08EF
:10097300802EBD0003020A3716B6FF0506060816C9
:1009830018C3CA33CACB33CB33CA27CA09CB37CB35
:10099300193CC37D08803E187D0820E75CC633C63A
:1009A300CA33CACB33CB33DDF1D5F0EB30E77BCAA7
:1009B30097CA09CB974ACB199C406F4B7025E62009
:1009C300E0218066187D08C3CA97CA09CB97CB1963
:1009D3009CD3C633C6CA33CACB33CB3350C9DDE746
:1009E300D5F0E1D3E4C636C608C636C608C636C651
:1009F30008C636C61818188031C3CA97CA09CB97D8
:100A0300CB199CB34097C633C6CA33CACB33CB3357
:100A1300DD34D5F02EC6A2E0C640C8CA27CA09CB2A
:100A230037194A70BECB3CB480B90808E63308E6F0
:100A330033601F181818D0E0FAD0E0FBD0E0FCD0E8
:100A4300E0FD22187D08CA27CA09CB37CB193CD34E
:100A5300808013F618E4B67F11F618B6FF0EF61869
:100A6300C60470D20808768080CAF618F618F68095
:100A7300C5E4CFC0E0E4CEC0E0E4CDC0E0E4CCC048
:100A8300E075F020C3E633F608E633F608E633F6FE
:100A930008E633F6181818EC33FCED33FDEE33FE9D
:100AA300EF33FFC3EC9709ED9709EE9709EF971919
:100AB3001919400FFFEC97FC09ED97FD09EE97FE1E
:100AC300191906D5F0BEECF709EDF709EEF709EFB2
:100AD300F7191919D0E0FCD0E0FDD0E0FED0E0FF1B
:100AE30022181818E4C396F608E496F608E496F676
:100AF30008E496F622E0F608A3E0F608A3E0F60879
:100B0300A3E0F622E6F008A3E6F008A3E6F008A3C4
:100B1300E6F022E0FAA3E0FBA3E0FCA3E0FD22EA77
:100B2300F0A3EBF0A3ECF0A3EDF022CAC0E0E6F0F3
:100B3300A308DAFAD0E0FA22CAC0E0E0A3C582CC67
:100B4300C582C583CDC583F0A3C582CCC582C583C9
:100B5300CDC583DAE6D0E0CA22C3E498F8E499F974
:100B6300120B9D8026C3E49AFAE49BFBE920E7E994
:100B7300120B9DE498F8E499F922C3E498F8E499F8
:100B8300F9120B9DE498F8E499F9C3E49AFAE49B0B
:100B9300FB22EB20E7CFE920E7E0B90010BB000818
:100BA300E88AF084F8AAF022E4FBC8FA22EB702268
:100BB3007B10C833C8C933C9335007C39AC3DBF2A8
:100BC30080069A50012ADBEAC833F4C8C933F4C952
:100BD300FA2275F008E4C833C8C933C933C99AC9BE
:100BE3009B5004C92AC93BD5F0ECFBC833F4C8E4D5
:100BF300C9FA22700422600D18C6C333C608C6336F
:100C0300C6D5E0F41822251010AF08F510400215E0
:100C1300118008F51040021511D2AF22C0D0251063
:100C230010AF08F510500205118008F510500205A9
:100C330011D2AFD0D0222510F58210AF08F51040A5
:100C43000215118008F51040021511D2AF851183EA
:100C5300222510F582E43511F58322E4732510C5AE
:100C630082C0E0E51134FFC583C0E0E510C395827F
:100C730024F810AF088583118582108008858311BD
:100C8300858210D2AFCEF0A3E520F0A37808E60862
:100C9300F0A3DEFAEFF0A3E58124FAF8E608F0A367
:100CA300E608F0A3E608F0A30808E608F0A3E608C0
:100CB300F0A315811581D0E0FED0E0F815811581F0
:100CC3001581E8C0E0EEC0E022851183851082E043
:100CD300A3FEE0A3F5207808E0A3F608DFFAE0A37B
:100CE300FFE0A3C0E0E0A3C0E0E0A3C0E0E0A3C056
:100CF300E0E0A3C0E010AF0885821085831180086F
:100D0300858210858311D2AFD083D0820200FBC0CD
:100D1300D02510C582C0E0E51134FFC583C0E0E5EE
:100D230010C3958224F310AF088583118582108048
:100D330008858311858210D2AFC8F0A3E9F0A3EA36
:100D4300F0A3EBF0A37908E709F0A3D8FAECF0A33A
:100D5300EDF0A3EEF0A3EFF0A3D0E0F0A3D0E0F02A
:100D6300A3D0E0F0A3E520F0A3E5F0F0A3228511E2
:100D730083851082E0C0E0A3E0F9A3E0FAA3E0FBDF
:100D8300A37808E0F608A3DFFAE0FCA3E0FDA3E004
:100D9300FEA3E0FFA3E0C0E0A3E0C0E0A3E0F5D042
:100DA300A3E0F520A3E0A3F5F010AF088583118538
:100DB30082108008858311858210D2AFD082D083C0
:100DC300D0E0F8D0E032740280027401C0E0F40491
:100DD300120C39D0E0120B2E2274028000CCC0E03A
:100DE300EDC0E0E510C39CCCAD1150011D10AF0662
:100DF3008C108D1180068C108D11D2AF120B3BD04D
:100E0300E0FDD0E0FC22D083D082ECC0E0EDC0E076
:100E1300EEC0E0EFC0E0E493A3FCE493A3FDE4930E
:100E2300A3FEE493A3FFEF4E4D4C6015120E85EC29
:100E330024FFFCED34FFFDEE34FFFEEF34FFFF80B3
:100E4300E5E493A3FCE493A3FDE493A3FEE493A35B
:100E5300FFEF4E4D4C6015120EC2EC24FFFCED3437
:100E6300FFFDEE34FFFEEF34FFFF80E5D0E0FFD05F
:100E7300E0FED0E0FDD0E0FCE493A3C0E0E493C047
:100E8300E022C0E0C0F088F0120294A8F0400712FC
:100E93000255A8F0701AA3A3A3A3120294A8F0A367
:100EA300A3A3A34013D0F0D0E0D0E0D0E0020E6FB4
:100EB300A3A3A3A3A3A3A3A3A3A3D0F0D0E022C07F
:100EC300E0C0F088F0120255A8F0A3A3A3A3700B0F
:100ED300D0F0D0E0D0E0D0E0020E6FA3A3D0F0D0EA
:100EE300E022C0E074F1120D12C2C5E589607E7E76
:100EF300008074750801750900EE7808120BF6E599
:100F030008AF08E5895F605EEEF87900E875F002E6
:100F1300A4C8AAF075F000A42AFA75F002E9A42A7D
:100F2300F9748A28F582740339F583E0F8A3E0F9AC
:100F3300E849602EEEF87900E875F002A4C8AAF03B
:100F430075F000A42AFA75F002E9A42AF9748A2834
:100F5300F582740339F583E0F8A3E0F58388821200
:100F63000C5EEFF452890EEEC3940840867F0202B2
:100F73000D71C0E074F1120D12C2EBE58A607E7E42
:100F8300008074750801750900EE7808120BF6E508
:100F930008AF08E58A5F605EEEF87900E875F00255
:100FA300A4C8AAF075F000A42AFA75F002E9A42AED
:100FB300F9749A28F582740339F583E0F8A3E0F90C
:100FC300E849602EEEF87900E875F002A4C8AAF0AB
:100FD30075F000A42AFA75F002E9A42AF9749A2894
:100FE300F582740339F583E0F8A3E0F58388821270
:100FF3000C5EEFF4528A0EEEC3940840867F020221
:101003000D71C0E074F1120D12C2E8E58B607E7EB3
:10101300008074750801750900EE7808120BF6E577
:1010230008AF08E58B5F605EEEF87900E875F002C3
:10103300A4C8AAF075F000A42AFA75F002E9A42A5C
:10104300F974AA28F582740339F583E0F8A3E0F96B
:10105300E849602EEEF87900E875F002A4C8AAF01A
:1010630075F000A42AFA75F002E9A42AF974AA28F3
:10107300F582740339F583E0F8A3E0F583888212DF
:101083000C5EEFF4528B0EEEC3940540867F020292
:101093000D71C0E074F2120D12A2AFE433FEC2AFC1
:1010A300E5E9A2E650209003B4E0F8A3E0F9E849AB
:1010B300600E9003B4E0F8A3E0F5838882120C5E1F
:1010C300759B0053E9BFEEA2E092AF7F01020D7161
:1010D300C0E0C0D0E8C0E0E9C0E0C082C083E5C1A1
:1010E300C0E0900437E0F8790074B628F582740301
:1010F30039F583D0E0F0900436E0F8900437E068E7
:101103007006E595900438F0900437E024019004CC
:1011130037F0C3948040069004377400F0D083D036
:1011230082D0E0F9D0E0F8D0D0D0E032C0E0C0D037
:10113300E8C0E0C008C009C082C0839004B9E0F8E9
:101143009004BAE068700B539AFB9004BB7401F0EF
:101153008031C2E99004B9E0F508740125089004D0
:10116300B9F075090074392508F58274043509F559
:1011730083E0F5C19004B9E0C3948040069004B9BC
:101183007400F0D083D082D009D008D0E0F8D0D05A
:10119300D0E03274F0120C6074FD120C0974021268
:1011A3000C54E9F08A088B098C0A8D0B7415120C08
:1011B30054E0FEA3E0FF851082851183E4F0A3F0E1
:1011C3008E828F83A3AA82AB83900528780C120AA0
:1011D300F87808790C12040B70188E828F83746967
:1011E300121675746EF0A37466F0A30A0AAB830239
:1011F30016107808790812040B60118E828F83749D
:101203006E1216757461F0A3746E80DD90052C78F0
:101213000C120AF87808790C12043750030212C032
:101223009004D3780C120AF87808790C12040B6036
:10123300030213147417120C54E07003021356853F
:101243001082851183C082C0837413120C54122040
:10125300B3D083D08212164E502C85108285118311
:10126300C3E094FCA3E094FFA2D265D0334017748B
:1012730002120C54E4122187F97413120C54C3E0C4
:1012830098F0A3E099F07413120C5412166B7418AF
:10129300120C54E070030213537417120C54E4023B
:1012A3001355900530780C120AF87808790C120857
:1012B3008E851082851183E0240A1221C49005349F
:1012C300780C120AF87808790C12043740D4900588
:1012D30038780C120AF87808790C120437400302A4
:1012E3001237900538780C120AF87808790C12082E
:1012F3008E1221BB80D8900530780C120AF878083A
:10130300790C1204D2851082851183E024F612161B
:101313006E90053C780C120AF87808790C12048652
:1013230040D490052C780C120AF87808790C120432
:10133300864003021237900538780C120AF87808B1
:10134300790C1204D285108285118312166B80D218
:101353007401F07402120C54E060077A007B0002FF
:10136300146212165A507D8E828F837430F0EAFE17
:10137300EBFF7413120C54E0FCA3E0FDEC4D70087A
:101383007418120C54E0600B8E828F83742EF0A3BA
:101393000EAF837A007B0080118E828F83743012AC
:1013A30016967413120C5412166BEA24FF1AEB34BC
:1013B300FFFB851082851183121642500B741312A2
:1013C3000C541220B74970D185108285118374FFA4
:1013D300C39CF874FF9DF912164E50030215307A20
:1013E300010213608510828511831220B3C3E49830
:1013F300FAE499FB806985080C85090D850A0E8539
:101403000B0F780C120320AC0CE50D3395E0F50EB1
:10141300F50F780C1202A87808790C120652900581
:1014230038780C120AF87808790C1204D2EC1216E8
:1014330090EAF8EBF9E824010AE93400FBE8497083
:101443001E7413120C541220B74970087418120C2E
:1014530054E0600B8E828F83742EF0A30EAF8374DF
:1014630013120C54121642508D900540780C120A38
:10147300F87808790C12043740030215307C01EE2A
:1014830024FFF8EF34FFF97415120C54E0F508A3A8
:10149300E0F50988828983E0642E6010E02CF06413
:1014A3003A70077430F07C0180027C00E8FAE9FBB3
:1014B300EA24FF18EB34FFF9C3E5089AE5099B40DA
:1014C300D2ECA2E050677402120C54E06036EEF8DE
:1014D300EF800A12162DE824FF18E934FFF9C3E55B
:1014E3000898E50999501812161AE0642E70E4E87A
:1014F30024FEF582E934FFF583121627F980D7120B
:1015030021BB801E8E828F83A3AE82AF83EEF8EF62
:10151300800612161A121627F9C3E50898E50999E9
:1015230040F07415120C541220D27431F074171257
:101533000C54E07005801A1EAF83EE24FFF582EF92
:1015430034FFF583E0643060EEE0642E70031EAF79
:10155300837402120C54E0700302160C121692A349
:10156300A98312165A8E828F835014742DF00EE9BC
:10157300FF8510828511831220FB12168380067467
:101583002BF00EE9FF7C007D00EE240AFEEF340011
:10159300FFEC24010CED3400FD121634120B95EA16
:1015A300121690121634120B9512169D4970E2C34F
:1015B300EC9402ED12206440D8ECFAEDFBC3E49CFA
:1015C300F8E49DF9EE28F582EF39F583E0C0E0C336
:1015D300E49AF8E49BF9EE28F8EF39F9E82CF8E9F6
:1015E3003DF9E824F5F582E934FFF583D0E0F0EC2A
:1015F30024FF1CED34FFFDC3EC9401ED1220645075
:10160300BCEE24F6FEEF34FFFFEEFAEFFB74031299
:101613000C1F7F08020CCCE824FFFAE934FFFB8A95
:10162300828B832212162D18EB22E088828983F0A5
:10163300228510828511831221087A0A7B0022C336
:10164300E09AA3E09BA2D265D03322C3E098A3E043
:1016530099A2D265D03322851082851183C3A3E07A
:101663009400A2D265D03322E024FFF0A3E034FF3C
:10167300F022F0EAFEEBFF8E828F8322A3E0340098
:10168300F9851082851183E8F0A3E9F02224308ED6
:10169300828F83F0A3AE82AF83228510828511836C
:1016A3001216A722E8F0A3E9F0851082851183E0E2
:1016B3002274F0120C6074B0120C0985108285112B
:1016C3008312216D7418120C54ECF0A3EDF0740F17
:1016D300120C54E4F0A380227460120C541220A361
:1016E3007404120C54E0F97418120C541220D21220
:1016F3000C5E740F120C5412206CF01220E6FA12D6
:1017030021A6120C54EAF074256A6010E070C974C3
:101713000F120C541220A374500216121220E66406
:10172300257019851082851183E024010812167F24
:101733007460120C541220A3792580AB740E120C22
:1017430054E4F0740D120C54E4F0740C120C54E4D1
:10175300F07405120C54E4F0741E120C54A882A900
:10176300837402120C5480157405120C54E0700734
:101773007405120C54EAF08510828511831216A3A6
:1017830012209A12212DFA24E060DD24FD60172433
:10179300F860DD24FE600624FD600F8011740C12D6
:1017A3000C54E00480D0740D80F5740E80F1122186
:1017B3002D642A705B7462120C54122138FB8A82E6
:1017C3008B83E0FCA3E0FD740A120C54ECF0A3ED50
:1017D300F0EA24020A0AEB3400FB7462120C54127E
:1017E3002165740A120C54121660501F740A120CED
:1017F300541220A3C3E49AFAE49BFB740A120C5418
:1018030012216D740C120C54E004F0121684804AF9
:10181300740A120C54E4F0A3802D740A120C5412AF
:1018230020B775F00AA4F8AAF075F00AE9A42AF91A
:10183300E50828F8E439F9E824D0F8E934FFF97425
:101843000A120C541221CB122187F5838882E0F50A
:101853000874D02508C3940A40C0740C120C54E0D9
:101863006007740E120C54E4F01220E6642E600339
:101873000218FF851082851183E0240108A3E03458
:1018830000F912169D1220D7E0642A702C7462129C
:101893000C541220ECF8A3E0F988828983E0FEA3BC
:1018A300E0FFE824020808E93400F97462120C54DA
:1018B3001221201221CBF080477E007F0085108209
:1018C3008511831220F574D02508C3940A5031EE94
:1018D30075F00AA4FEA8F075F00AEFA428FFE50846
:1018E3002EF8E43FF9E824D0FEE934FFFF851082A7
:1018F300851183E02401F812167F80C17EFF7FFFEC
:101903007A008510828511831220958510828511B6
:1019130083E0FBA3E0F5838B82E024B4600824E436
:10192300600524FC70040A1216841220E6FB1221BF
:10193300A6120C54EBF07003021F0A24BB700302BF
:101943001DD024FE7003021DB224EF7003021AFCA3
:1019530024F57003021A01147003021BA11470030F
:10196300021DD0147003021DCE147003021DB22495
:10197300FE7003021BA124FB6024147003021AEC03
:10198300147003021AFC24FD7003021A3A24FE7039
:1019930003021AFC24FD7003021AFC021F16746270
:1019A300120C5412215F120C5412168AEAA2E0742C
:1019B3000F5033120C54E0FCA3E0FD3395E0FE74AA
:1019C30006120C54122140ECF0A3EDF0A3EEF0A3A9
:1019D300F07462120C54122147120C54122120E8A5
:1019E300F0A3E90216FD120C541220B37406120C74
:1019F30054122138F5838A82E8F0A3E980D2746215
:101A0300120C54122140E0C0E0741E120C54D0E0BA
:101A1300F07462120C54122147120C54122120123A
:101A2300168A741F120C54A882A9837412120C54C0
:101A3300E8F0A3E9021F2D7462120C5412215F1205
:101A43000C5412168A7406120C5412215F120C5491
:101A5300E02402FAA3E03400FB7462120C54122156
:101A6300657402120C5412168AE849700C7402123F
:101A73000C547415F0A37405F012206250047E1008
:101A83007F277408120C54E4F0A380087408120C26
:101A93005412206CF07402120C541220B388828901
:101AA30083A3AA82AB837402120C5412216D888221
:101AB3008983E0600A7408120C541220BC40CD7470
:101AC30002120C541220837412120C5412168A74CC
:101AD30008120C541220FBF97412120C54E028F86B
:101AE300A3E039F97402021A30740D120C54E06049
:101AF30008EE4F70047E017F007462120C541221B1
:101B03005F120C541221B3120C54E06470703874D9
:101B130006120C54122155120C5412218E120C541D
:101B2300E02402122117120C5412212012168A905B
:101B33000544120B16741A120C54120B227405125C
:101B43000C54E4F0021C31EAA2E07406501B120CA0
:101B5300541220D2120B167414120C54120B22744A
:101B630006120C54E024048012120C541221551254
:101B73000C5412218E120C54E02402122117120C61
:101B8300541221201221B3120C54E0646F7005909B
:101B93000548809EE0647570969005008094746299
:101BA300120C5412215F120C5412168AEAA2E0742A
:101BB300065016120C541220D27808120AF8740632
:101BC300120C54E02404F8801B120C541220F5A3C9
:101BD300E0F5093395E0F50AF50B7406120C54E0B1
:101BE30024020808122118120C5412219B120C54BF
:101BF3007808120B079004D3780812026E40217400
:101C030005120C54742DF07414120C547808120A33
:101C1300F87808120AE77414120C547808120B07A8
:101C2300900500120B16741A120C54120B22744FE7
:101C3300120C54A882A9837402120C5412168A74CB
:101C430012120C5412219E120C547808120AF8E551
:101C5300084509450A450B60097411120C547401B7
:101C630080067411120C54E4F0EE4F7008E0A2E009
:101C73004003021D257402120C541220CC120C5482
:101C830012219E120C54780C120AF8741A120C5476
:101C93007808120AF8780C7908120A747404250873
:101CA300F58274053509F583E0C0E07402120C5423
:101CB3001220D2D0E0F07414120C54780C120AF8EB
:101CC300741A120C547808120AF8780C7908120A5C
:101CD300747414120C54780C120B077414120C54F1
:101CE3007808120AF8E5084509450A450B7086127B
:101CF3002062502E740E120C54E060267405120CF0
:101D030054E06004D2F08002C2F0740A120C541240
:101D13002075800E7402120C5412217F120C54127F
:101D230020DF7402120C54122083744F120C54C01F
:101D330082C0837402120C541220A3D083D082E594
:101D430082C39AFAE5839BFBC3EA9EEB1220C5404C
:101D5300C3740D120C54E07003021F2E7411120C85
:101D630054E0A2E04003021F2E7404120C54E064FA
:101D7300786005E06458701E12162DE824FF18E9F8
:101D830034FFF97402120C5412217F120C541220E6
:101D9300D27430021F2DE0646F6003021F2E7402A1
:101DA300120C5412213364307003021F2E80D4743A
:101DB30008120C547401F0A3E4F07404120C54E000
:101DC30024FEF0EE4F700F7E018012E4F0740812CF
:101DD3000C54E4F0A3F012206250047E067F0074DA
:101DE30062120C5412215F120C5412168A740612DA
:101DF3000C541220D2780C120AF87406120C54E018
:101E03002404122117120C5412219B120C54780C27
:101E1300120B079004D37808120AF8780C79081289
:101E2300048650227405120C54742DF07414120C91
:101E3300547808120AF8E50BB2E7F50B7414120C88
:101E4300547808120B07740A120C541220B3741E30
:101E5300120C54E58228F8E58339F97402120C5404
:101E630012168A740D120C54E0F5087808120DCD81
:101E73007409120C54E0F5087808120DCD7404129D
:101E83000C54120DDC8E088F097808120DC9740AE0
:101E9300120C54E0F9741A120C54120B1612024964
:101EA3007406120C1F7412120C5412216D740E124C
:101EB3000C54E060767405120C54E06004D2F08098
:101EC30002C2F0740A120C541220757412120C54CC
:101ED300C082C0837402120C541220B3D083D08208
:101EE300E0C398F8A3E099F9C3E89EE91220C5502E
:101EF3003A7402120C541220CC120C5412217F1289
:101F03000C541220DF80C485108285118312208C2B
:101F13001216837402120C547424F0A37405F07423
:101F230012120C547427F0A37405F07412120C549B
:101F3300C082C0837402120C541220B3D083D082A7
:101F4300E0C398FEA3E099FF740A120C541220BC5C
:101F5300500A7408120C54E4F0A380307405120C78
:101F630054E06004D2F08002C2F0740A120C54E010
:101F7300C39EF8A3E09FF9A2F0E433FAE89AF8E9E4
:101F83009400F97408120C54E8F0A3E9F0740C12ED
:101F93000C54E0702B80197460120C541220A91297
:101FA3000C541220D2120C5E740F120C541221C165
:101FB3007408120C54122173120C5412166050D769
:101FC3007405120C54E060507460120C541220A378
:101FD3007405120C54E0F97418120C541220D21226
:101FE3000C5E802C7460120C541220A37402120C29
:101FF300541220ECF97418120C541220D2120C5EF5
:102003007402120C541220957402120C5412168A84
:10201300740F120C541221C1EE24FF1EEF34FFFF84
:10202300C312206450BE740C120C54E070030216E9
:10203300FE7408120C54122173120C5412166050C1
:10204300030216FE7460120C541220A9120C5412CF
:1020530020D2120C5E740F120C541221C180D2C311
:10206300EF9400A2D265D03322E02401F0A3E03440
:102073000022A2F0E433F8E098FEA3E09400FF22EC
:102083001220872212208CF922E024FFF8A3E034E7
:10209300FF22E012209A222401F8A3E03400F9225F
:1020A300E0FAA3E0FB22E0FAA3E0FB792074182214
:1020B30012210822122108E822C3E09EA3E0122085
:1020C300C5229FA2D265D033221220877402221226
:1020D30020D622E0F8A3E0F5838882221220D6746A
:1020E30030F0228510828511831220F02212210EF6
:1020F300E0221220F0F50822122108C3E498F8E444
:10210300992212210EE0F8A3E0F922E0F8A3E0F50A
:1021130083888222F8A3E03400F974622212212416
:1021230022E0FAA3E0F5838A822285108285118357
:10213300122124E022122124E0FAA3E0221220F04B
:102143001220D7221220F02402F8A3E03400F974FD
:102153006222122105E8FAE9FB74142212210574A4
:102163000622E0FCA3E0F5838C82EAF0A3EBF022E5
:10217300E024FFF0A3E034FFF0740822E8F0A3E9C1
:10218300F07402221216ABF8A3E022EAF0A3EBF0FC
:10219300A3E4F0A3F0740622122124E8F0A3E9F0EB
:1021A300741422851082851183E02401081221D939
:1021B300E8F0A3E9F0740422851082851183E024FA
:1021C30001F0A3E03400F0221216A72401F8122133
:1021D300D9E8F0A3E922A3E03400F9851082851140
:1021E3008322EAF8EBF9801EEA2401FAEB3400FBC0
:1021F300C3EA940DEB9402A2D265D03340EAE824FB
:10220300FFF8E934FFF9C3E89401E99400A2D26529
:10221300D03340067A007B0080D60200FBC082C028
:10222300839004C37434F0A37412F09004C574153E
:10223300F09004C17401F0A37400F09004C674011B
:10224300F07AC17B041201A1E9640160F41201B3C5
:10225300D083D0820200FB1201B91202319004FC38
:10226300120B16120213750800750900803D7808D9
:10227300120DC97CE57D049004FAE0FAA3E0FB1299
:1022830002437402120C1F8A088B09AC08AD099033
:1022930004FAE0FAA3E0FB12021F800F7C097D0021
:1022A3009004FAE0FAA3E0FB1202191202258A084D
:1022B3008B09E508450970E47A647B0012022B124E
:1022C30001A7E960E6E4F508F5097808120DC97C71
:1022D300017D007AC07B041201AD7402120C1FE968
:1022E3009004C0E0640170C39004FAE0F8A3E0F541
:1022F300838882A3A3A3A3E024BF601114601A14EC
:10230300602314602C14603514603E80489004BE32
:10231300740AF0A37400F0805E9004BE740BF0A303
:102323007400F080529004BE740CF0A37400F0802B
:10233300469004BE740DF0A37400F0803A9004BE7E
:10234300740EF0A37400F0802E9004BE740FF0A3FB
:102353007400F080229004FAE0F8A3E0F583888209
:10236300A3A3A3A3E0F8790024D0F8E934FFF990FC
:1023730004BEE8F0A3E9F09004FAE0F8A3E0F583E3
:102383008882A3A3A3E024BF601114601A146023FE
:1023930014602C14603514603E80489004BC74A013
:1023A300F0A37400F080729004BC74B0F0A37400C6
:1023B300F080669004BC74C0F0A37400F0805A905F
:1023C30004BC74D0F0A37400F0804E9004BC74E09D
:1023D300F0A37400F080429004BC74F0F0A3740086
:1023E300F080369004FAE0F8A3E0F5838882A3A393
:1023F300A3E0F8790024D0F8E934FFF9E875F01088
:10240300A4C8AAF075F000A42AFA75F010E9A42A6A
:10241300F99004BCE8F0A3E9F09004BCE0F8A3E071
:10242300F99004BEE028F508A3E039F509E508248E
:1024330001F508E5093400F509C3E5089410E50939
:10244300940050030222717808120DC97CF07D04B8
:102453009004FAE0FAA3E0FB1202437402120C1F89
:102463008A088B09AC08AD099004FAE0FAA3E0FBF3
:1024730012021F0222AE74F4120C608A088B098CBC
:102483000A8D0B53F1FE43F30C53F2F375868075FB
:10249300C4807808120E09000000000C000000B090
:1024A300040000EC2460090000F424C0120000FCC6
:1024B30024802500000425403800000C25004B0033
:1024C300001425807000001C2500960000242500C0
:1024D300E100002C25002C0100342500C201003C42
:1024E300250084030044254C2575C23B75C5058032
:1024F3005E75C23B75C506805675C23B75C50780C0
:102503004E75C23B75C508804675C2D875C508802F
:102513003E75C23B75C509803675C2D875C509803D
:102523002E75C23B75C50A802675C2D875C50A804B
:102533001E75C23B75C50B801675C2D875C50B8059
:102543000E75C2D875C50C800675C23B75C50A7574
:10255300C402438640D2AA75C1009004367400F0C9
:102563009004377400F09004B97400F09004BA74C6
:1025730000F09004387400F09004BB7400F07F0402
:10258300020CCC74F7120C6078007900803E900442
:1025930036E0FE7F0074B62EF58274033FF583E0C8
:1025A3008A828B83F0900436E02401F08A828B8345
:1025B300A3AA82AB83900436E0C3948040069004C0
:1025C300367400F0E82401F8E93400F9900436E0A9
:1025D300FE900437E06E6007C3E89CE99D40AFE8D6
:1025E300FAE9FB7F01020CCC74F7120C609004B97A
:1025F300E0F89004BAE0C398501F9004B9E0F8796A
:10260300009004BAE0FE7F00E8C39EF8E99FF9E872
:1026130024FFF8E934FFF980379004BAE0F8790031
:10262300C3E498F8E499F99004B9E0FE7F00E82E3A
:10263300F8E93FF9E8247FF8E93400F9C3E89CE9B5
:102643009D5004D2F08002C2F0A2F0E433F8790086
:10265300E84960067A007B00805E7800790080128A
:102663009004BAE02401F0439A04E82401F8E93421
:1026730000F9C3E89CE99D503B8A828B83E0C0E06C
:102683009004BAE0FE7F0074392EF58274043FF59E
:1026930083D0E0F08A828B83A3AA82AB839004BBAE
:1026A3007400F09004BAE0C3947F40B49004BA7409
:1026B30000F080B3E8FAE9FB7F01020CCCC082C0D2
:1026C30083900436E0F8900437E0C39840179004F1
:1026D30037E0F87900900436E0FA7B00E8C39AFA11
:1026E300E99BFB801D900436E0F879007480C39861
:1026F300F8740099F9900437E0FA7B00E82AFAE9C4
:102703003BFBD083D0820200FB74F7120C607E0A7D
:102713007F031202011201C57901EEFAEFFB1201E8
:10272300F58E828F83E0C2E7F08E828F83E06405AB
:1027330070528E828F83E0F97A0B7B031201F58E40
:10274300828F83A3E0A2E55004D2F08002C2F0A2FC
:10275300F0E4339004CFF0780E790388828983A361
:10276300E0A2E7400302281E8E828F83A3A3A3E087
:10277300F8900301E068600302281E9003027401CD
:10278300F002281E8E828F83E024F59004CCF08E15
:10279300828F83E0F97A0B7B031201F58E828F839C
:1027A300A3E0A2E55004D2F08002C2F0A2F0E43329
:1027B3009004CFF08E828F83A3A3A3A3A3A3A3A389
:1027C300E0F8A3E0F99004C8E8F0A3E9F09004CDA1
:1027D3007414F0A37403F09004CCE0F83395E0F99B
:1027E3009004CDE028F8A3E039F988828983E0904A
:1027F30004D0F088828983A3E0A2E750128E828FEF
:1028030083A3E054DF644170069004D17401F08E19
:10281300828F83A3A3A3E09004C7F01201CB12021B
:10282300077F01020CCC74F7120C60EAFEEBFF1277
:1028330001D7E9640170047901806F1201CB900321
:1028430008EEF0A3EFF09004CD7400F0A37400F051
:102853009003037401F09004D3120B169003041237
:102863000B22900308E0F8A3E0F5838882A3A3A3D7
:10287300A3E0F91201E3900308E0F8A3E0F58388ED
:1028830082E0FAA3E0FB1201E9900308E0F8A3E079
:10289300F5838882A3A3E0FAA3E0FB1201EF7A9BFE
:1028A3007B0112020D1201C579007F01020CCCC01D
:1028B30082C0839004D1E0F9D083D0820200FB74FC
:1028C300F2120C608A0A8B0BECFEEDFF740E120CF5
:1028D30054E0F508A3E0F5091201CB9004CCE0F82D
:1028E3003395E0F9C3E89EE99F500D9004CCE0F5E1
:1028F3000C3395E0F50D80048E0C8F0D780C120DC2
:10290300C99004CDE0FCA3E0FDAA0AAB0B12023789
:102913007402120C1FE508450960261201DDE9F572
:102923000A9004D0E0F83395E0F9750B00E8C395FD
:102933000AF8E9950BF9850882850983E8F0A3E98C
:10294300F09004D17400F01201C59004CCE0F83388
:1029530095E0F9C3E89EE99F50079004CCE0F98025
:1029630002EEF97F06020CCCC082C083900303748D
:1029730001F01201FBD083D0820200FBC082C0832E
:10298300906189E04460F090619074D5F09061FAB1
:102993007409F09061B27415F09061AE7400F01296
:1029A30002077900D083D0820200FB79490200FB41
:1029B300C082C08375F005E9A424D490618FF0D060
:1029C30083D0820200FBC082C083EA906174F0E48A
:1029D300EBFA906175F0D083D0820200FBC082C015
:1029E30083EA906172F0E4EBFA906173F0D083D0E4
:1029F300820200FBC082C0838011E5D98A828B8367
:102A0300F08A828B83A3AA82AB8319E9C394015012
:102A1300E9D083D0820200FB75E1EC75E1E30200AB
:102A2300FBC082C0839061A3E0C2E6F0539AFED05C
:102A330083D0820200FBC082C0839061A3E0D2E610
:102A4300F0439A01D083D0820200FBC082C083A2EC
:102A5300AFE433F8C2AF9003B4EAF0A3EBF0E8A21B
:102A6300E092AFD083D0820200FBC082C0838A820F
:102A73008B83122B04E9F08A828B83E02401FCA36D
:102A8300E03400FD8A828B83ECF0A3EDF0D083D099
:102A9300820200FB74F6120C6074FC120C097402BF
:102AA300120C54EAF0A3EBF0ECFAEDFB740E120CEB
:102AB30054A882A983851082851183E8F0A3E9F0E5
:102AC3008510828511838582088583097808120D14
:102AD300C97404120C548582088583097808120D81
:102AE300C97C3D7D0212024F7404120C1F74021242
:102AF3000C54122B04E4F07404120C1F7F02020C1A
:102B0300CCE0F8A3E0F58388822274F6120C60749B
:102B13000A120C54E0FEA3E0FFEAF8EBF980188CEC
:102B2300828D83E088828983F0A3A882A9838C8223
:102B33008D83A3AC82AD838E088F09E50824FF1E25
:102B4300E50934FFFFE508450970D47F02020CCC88
:102B5300E5C65480F853BEFBE59DA2E550FAE59D1A
:102B6300A2E240F4007401697007744948F5C68015
:102B730005E9700288C6E5C6F8E59EFAE86A70F9C9
:102B830043BE040200FBC082C0831201D19004D76C
:102B9300120B161202131201C5D083D0820200FB5E
:102BA300C082C08379001201BFD083D0820200FBB0
:0A2BB300D2AF0200FBC2AF0200FB2C
:04000005000000E314
:00000001FF
