:020000040000FA
:030000000200E318
:0300130002067F63
:030033000205B112
:03003B000206DBDF
:03006B00020491FB
:03007B000205215A
:1000830002064100000080FB120113B900030200C5
:10009300CDE4900301783579038002F0A3D8FCD92D
:1000A300FA900535AA82AB83900116781579018001
:1000B30015E493A3AC82AD838A828B83F0A3AA82D7
:1000C300AB838C828D83D8E9D9E775826275830D02
:1000D30074001200F575828675830074001200F5B2
:1000E30075D00075813F751001751103759F00026E
:1000F300008BC09FF59FE473D09F22D083D082C032
:100103009FE493C0E0740193C0E0740293F59F22CF
:10011300790122FF00000000000000000000000041
:1001230000000000C201001200FEEF0C001200FEEE
:10013300290D001200FE4207001200FEE90700121B
:1001430000FE4A08001200FE6709001200FEF009D3
:10015300001200FE8C0A001200FE390E001200FE8F
:10016300030E001200FE530E001200FE580E001282
:1001730000FEC70D001200FED70D001200FEA00AFC
:10018300001200FECF0A001200FEE50A001200FE74
:10019300FC0A001200FE130B001200FE3F0B0012BC
:1001A30000FE630B001200FE740B001200FE7D0BB9
:1001B300001200FE860B001200FE9B0B001200FED5
:1001C300B00B001200FECF0B001200FEE20B00E4A6
:1001D300936670130874019366700C087402936637
:1001E3007005087403936622C3E49396087401931D
:1001F300960874029396087403939622E0FAA3E098
:10020300FBA3E0FCA3E0FD22EAF0A3EBF0A3ECF0F8
:10021300A3EDF022700422600D18C6C333C608C6CE
:1002230033C6D5E0F41822251010AF08F5104002AC
:1002330015118008F51040021511D2AF222510F5D3
:1002430082E43511F58322E4732510C582C0E0E50D
:100253001134FFC583C0E0E510C3958224F810AFC5
:10026300088583118582108008858311858210D2C9
:10027300AFCEF0A3E520F0A37808E608F0A3DEFAFA
:10028300EFF0A3E58124FAF8E608F0A3E608F0A36B
:10029300E608F0A30808E608F0A3E608F0A3158132
:1002A3001581D0E0FED0E0F8158115811581E8C0F5
:1002B300E0EEC0E022851183851082E0A3FEE0A377
:1002C300F5207808E0A3F608DFFAE0A3FFE0A3C077
:1002D300E0E0A3C0E0E0A3C0E0E0A3C0E0E0A3C08F
:1002E300E010AF0885821085831180088582108510
:1002F3008311D2AFD083D0820200FBC0D02510C5BA
:1003030082C0E0E51134FFC583C0E0E510C39582E8
:1003130024F310AF0885831185821080088583112B
:10032300858210D2AFC8F0A3E9F0A3EAF0A3EBF003
:10033300A37908E709F0A3D8FAECF0A3EDF0A3EE54
:10034300F0A3EFF0A3D0E0F0A3D0E0F0A3D0E0F06F
:10035300A3E520F0A3E5F0F0A322851183851082A5
:10036300E0C0E0A3E0F9A3E0FAA3E0FBA37808E090
:10037300F608A3DFFAE0FCA3E0FDA3E0FEA3E0FFA1
:10038300A3E0C0E0A3E0C0E0A3E0F5D0A3E0F52044
:10039300A3E0A3F5F010AF088583118582108008D0
:1003A300858311858210D2AFD082D083D0E0F8D07C
:1003B300E032D083D082ECC0E0EDC0E0EEC0E0EFED
:1003C300C0E0E493A3FCE493A3FDE493A3FEE493CE
:1003D300A3FFEF4E4D4C6015120431EC24FFFCEDEE
:1003E30034FFFDEE34FFFEEF34FFFF80E5E493A31B
:1003F300FCE493A3FDE493A3FEE493A3FFEF4E4D2C
:100403004C601512046EEC24FFFCED34FFFDEE345A
:10041300FFFEEF34FFFF80E5D0E0FFD0E0FED0E049
:10042300FDD0E0FCE493A3C0E0E493C0E022C0E08D
:10043300C0F088F01201EBA8F040071201D2A8F037
:10044300701AA3A3A3A31201EBA8F0A3A3A3A34031
:1004530013D0F0D0E0D0E0D0E002041BA3A3A3A309
:10046300A3A3A3A3A3A3D0F0D0E022C0E0C0F0884D
:10047300F01201D2A8F0A3A3A3A3700BD0F0D0E095
:10048300D0E0D0E002041BA3A3D0F0D0E022C0E070
:1004930074F11202FEC2C5E589607E7E0080747528
:1004A3000801750900EE7808120217E508AF08E5A0
:1004B300895F605EEEF87900E875F002A4C8AAF0DF
:1004C30075F000A42AFA75F002E9A42AF974032846
:1004D300F582740439F583E0F8A3E0F9E849602E66
:1004E300EEF87900E875F002A4C8AAF075F000A44C
:1004F3002AFA75F002E9A42AF9740328F582740430
:1005030039F583E0F8A3E0F583888212024AEFF419
:1005130052890EEEC3940840867F0202035DC0E059
:1005230074F11202FEC2EBE58A607E7E0080747570
:100533000801750900EE7808120217E508AF08E50F
:100543008A5F605EEEF87900E875F002A4C8AAF04D
:1005530075F000A42AFA75F002E9A42AF9741328A5
:10056300F582740439F583E0F8A3E0F9E849602ED5
:10057300EEF87900E875F002A4C8AAF075F000A4BB
:100583002AFA75F002E9A42AF9741328F58274048F
:1005930039F583E0F8A3E0F583888212024AEFF489
:1005A300528A0EEEC3940840867F0202035DC0E0C8
:1005B30074F11202FEC2E8E58B607E7E00807475E2
:1005C3000801750900EE7808120217E508AF08E57F
:1005D3008B5F605EEEF87900E875F002A4C8AAF0BC
:1005E30075F000A42AFA75F002E9A42AF974232805
:1005F300F582740439F583E0F8A3E0F9E849602E45
:10060300EEF87900E875F002A4C8AAF075F000A42A
:100613002AFA75F002E9A42AF9742328F5827404EE
:1006230039F583E0F8A3E0F583888212024AEFF4F8
:10063300528B0EEEC3940540867F0202035DC0E039
:1006430074F21202FEA2AFE433FEC2AFE5E9A2E602
:10065300502090042DE0F8A3E0F9E849600E9004DF
:100663002DE0F8A3E0F583888212024A759B0053BC
:10067300E9BFEEA2E092AF7F0102035DC0E0C0D00C
:10068300E8C0E0E9C0E0C082C083E5C1C0E09004F7
:10069300B0E0F87900742F28F582740439F583D01B
:1006A300E0F09004AFE0F89004B0E0687006E595E0
:1006B3009004B1F09004B0E024019004B0F0C3942E
:1006C3008040069004B07400F0D083D082D0E0F96B
:1006D300D0E0F8D0D0D0E032C0E0C0D0E8C0E0C075
:1006E30008C009C082C083900532E0F8900533E06A
:1006F30068700B539AFB9005347401F08031C2E9A2
:10070300900532E0F50874012508900532F075096B
:100713000074B22508F58274043509F583E0F5C148
:10072300900532E0C3948040069005327400F0D007
:1007330083D082D009D008D0E0F8D0D0D0E0327492
:10074300F712024CE9FEEAF8EBF9E8FAE9FB740B5D
:100753002E8A828B83F090030EE0F8A3E0F5838862
:1007630082A3A3A3A3A3E0600678617988800478B9
:10077300417988E88A828B83A3F0E4E9F88A828B43
:1007830083A3A3F0900307E08A828B83A3A3A3F040
:1007930090030EE0F8A3E0F5838882A3A3E0F8A317
:1007A300E0F98A828B83A3A3A3A3E8F0A3E9F08AE9
:1007B300828B83A3A3A3A3A3A3ECF0A3EDF09003E5
:1007C3000EE0F8A3E0F5838882E0F8A3E0F98A82DB
:1007D3008B83A3A3A3A3A3A3A3A3E8F0A3E9F07923
:1007E3000A7F010202B874F212024CECFEEDFF899B
:1007F30008A908EAFCEBFD7A107B03120136E9FB3A
:100803007A0080348A0A750B00EE250AF582EF35EB
:100813000BF583E0C0E08B0A750B008A0C750D00A5
:10082300E50A250CF8E50B350DF9741028F58274EB
:100833000339F583D0E0F00AEAC3950840C6EB25F7
:1008430008F97F060202B874F712024C7E837F0315
:100853001201B41201667901EEFAEFFB12019C8ECC
:10086300828F83E0C2E7F08E828F83E0640570524B
:100873008E828F83E0F97A847B0312019C8E828FB0
:1008830083A3E0A2E55004D2F08002C2F0A2F0E418
:100893003390053DF07887790388828983A3E0A2AA
:1008A300E7400302095C8E828F83A3A3A3E0F89041
:1008B3000307E068600302095C9003087401F00217
:1008C300095C8E828F83E024F590053AF08E828F47
:1008D30083E0F97A847B0312019C8E828F83A3E0E9
:1008E300A2E55004D2F08002C2F0A2F0E4339005F6
:1008F3003DF08E828F83A3A3A3A3A3A3A3A3E0F8B6
:10090300A3E0F9900536E8F0A3E9F090053B748D78
:10091300F0A37403F090053AE0F83395E0F99005FD
:100923003BE028F8A3E039F988828983E090053E0B
:10093300F088828983A3E0A2E750128E828F83A37B
:10094300E054DF6441700690053F7401F08E828F9E
:1009530083A3A3A3E0900535F012016C1201BA7FC3
:10096300010202B874F712024CEAFEEBFF12017E99
:10097300E9640170047901806F12016C90030EEE3B
:10098300F0A3EFF090053B7400F0A37400F0900324
:10099300097401F09005411201FF90030A12020B42
:1009A30090030EE0F8A3E0F5838882A3A3A3A3E05A
:1009B300F912018490030EE0F8A3E0F5838882E046
:1009C300FAA3E0FB12018A90030EE0F8A3E0F5839B
:1009D3008882A3A3E0FAA3E0FB1201907A427B0191
:1009E3001201C012016679007F010202B874F41289
:1009F300024CEAFEEBFF8C0A8D0B8908900309E099
:100A030070031201A8E508C394675005850809809F
:100A1300037509678509081201C61201B4A908AC58
:100A23000AAD0BEEFAEFFB12013CE9F97A107B03F6
:100A33001201961201BA1201A2E960027E0190032B
:100A43000EE0F8A3E0F5838882A3A3A3A3A3E06049
:100A53001C9003087400F07A4A7B02120178900319
:100A630008E06004740080027401FE80027E00903E
:100A73000309E070031201AEEE7007900307E02450
:100A830001F0EEF97F040202B8C082C0839003092B
:100A93007401F01201A8D083D0820200FBC082C08F
:100AA30083906189E04460F090619074D5F0906127
:100AB300FA7409F09061B27415F09061AE7400F0AD
:100AC3001201BA7900D083D0820200FBC082C083B6
:100AD30075F005E9A424D490618FF0D083D082020D
:100AE30000FBC082C083EA906174F0E4EBFA90618A
:100AF30075F0D083D0820200FBC082C083EA90618C
:100B030072F0E4EBFA906173F0D083D0820200FBC1
:100B130074F612024C75E1EE7591FD78008013882E
:100B230008750900EA2508F582EB3509F583E0F538
:100B3300D908E8C39940E87F020202B8C082C083A3
:100B43008011E5D98A828B83F08A828B83A3AA8260
:100B5300AB8319E9C3940150E9D083D0820200FB2F
:100B630075E1E9E591A2E150FA7591FD7900020082
:100B7300FB75E1EC75E1E30200FB75E1EF75E1EC78
:100B83000200FBC082C0839061A3E0C2E6F0539AE7
:100B9300FED083D0820200FBC082C0839061A3E0B9
:100BA300D2E6F0439A01D083D0820200FBC082C018
:100BB30083A2AFE433F8C2AF90042DEAF0A3EBF0C5
:100BC300E8A2E092AFD083D0820200FBC082C08350
:100BD300906193E0542270F8D083D0820200FB74BA
:100BE300F412024C8A088B098C0A8D0B53F1FE43D5
:100BF300F30C53F2F375868075C48078081203B53D
:100C0300000000000C000000B0040000550C600957
:100C130000005D0CC0120000650C802500006D0C07
:100C230040380000750C004B00007D0C8070000004
:100C3300850C009600008D0C00E10000950C002C43
:100C430001009D0C00C20100A50C00840300AD0C43
:100C5300B50C75C23B75C505805E75C23B75C5068F
:100C6300805675C23B75C507804E75C23B75C50876
:100C7300804675C2D875C508803E75C23B75C509E7
:100C8300803675C2D875C509802E75C23B75C50AF5
:100C9300802675C2D875C50A801E75C23B75C50B03
:100CA300801675C2D875C50B800E75C2D875C50C74
:100CB300800675C23B75C50A75C402438640D2AA35
:100CC30075C1009004AF7400F09004B07400F0900C
:100CD30005327400F09005337400F09004B1740091
:100CE300F09005347400F07F040202B8C082C08320
:100CF3009003037421F0A37410F09003057415F0AE
:100D03009003017401F0A37400F09003067401F0E2
:100D13007A017B03120148E9640160F4120154D0A3
:100D230083D0820200FB7C007D00801EE82401F852
:100D3300E93400F9C3E89417E99402A2D265D033E9
:100D430040EAEC2401FCED3400FDC3EC9AED9BA2D8
:100D5300D265D03350067800790080D80200FB7446
:100D6300FE12022A12015A12012A53F4E443FE1B13
:100D730075900053F3FD53FDFD801DD29074011255
:100D830002407401F079017401120240AC82AD8318
:100D93007A027B0012014EE97AE87B03120130A24A
:100DA3008150D8C2908510828511837400F0790137
:100DB300851082851183AC82AD837A027B00120198
:100DC3004EE980D4C082C0837900120160D083D001
:100DD300820200FBEBC313FBEA13FAEAF8EBF9E830
:100DE30024FFFAE934FFFBE8496012000000000029
:100DF300000000000000000000000080DE0200FB95
:100E0300E5C65480F853BEFBE59DA2E550FAE59D87
:100E1300A2E240F4007401697007744948F5C68082
:100E230005E9700288C6E5C6F8E59EFAE86A70F936
:100E330043BE040200FBC082C083120172900545C9
:100E43001201FF1201CC120166D083D0820200FB93
:0A0E5300D2AF0200FBC2AF0200FBA9
:04000005000000E314
:00000001FF
