:020000040000FA
:030000000200E318
:030013000206A53D
:030033000205D7EC
:03003B00020701B8
:03006B000204B7D5
:03007B0002054734
:1000830002066700000080FB120113B9000302009F
:10009300CDE490030178C279028002F0A3D8FCD9A1
:1000A300FA9004C2AA82AB83900116781679018074
:1000B30015E493A3AC82AD838A828B83F0A3AA82D7
:1000C300AB838C828D83D8E9D9E775824975830C1C
:1000D30074001200F575828675830074001200F5B2
:1000E30075D00075813F751001751103759F00026E
:1000F300008BC09FF59FE473D09F22D083D082C032
:100103009FE493C0E0740193C0E0740293F59F22CF
:10011300790122FF00000000000000000000000041
:1001230000000000C20100021200FE680700120076
:10013300FE8508001200FE0E09001200FE1E0900D3
:100143001200FEC709001200FE230D001200FEED8F
:100153000C001200FE4D0D001200FE520D001200A5
:10016300FE3D0D001200FEE80A001200FE170B0010
:100173001200FE1C0B001200FE320B001200FE499F
:100183000B001200FE600B001200FE840B00120035
:10019300FE8D0B001200FEA20B001200FEB70B0037
:1001A3001200FEDB09001200FED60B001200FE1047
:1001B3000C001200FEA70C00E49366701308740190
:1001C3009366700C08740293667005087403936653
:1001D30022C3E493960874019396087402939608D5
:1001E3007403939622E0FAA3E0FBA3E0FCA3E0FDF3
:1001F30022EAF0A3EBF0A3ECF0A3EDF022CAC0E0F7
:10020300E6F0A308DAFAD0E0FA22700422600D18AF
:10021300C6C333C608C633C6D5E0F41822C0D025FA
:100223001010AF08F510500205118008F5105002A8
:100233000511D2AFD0D0222510F58210AF08F510EA
:10024300400215118008F51040021511D2AF851137
:1002530083222510F582E43511F58322E4732510FA
:10026300C582C0E0E51134FFC583C0E0E510C39546
:100273008224F810AF088583118582108008858356
:1002830011858210D2AFCEF0A3E520F0A37808E663
:1002930008F0A3DEFAEFF0A3E58124FAF8E608F00C
:1002A300A3E608F0A3E608F0A30808E608F0A3E62F
:1002B30008F0A315811581D0E0FED0E0F815811573
:1002C300811581E8C0E0EEC0E022851183851082AC
:1002D300E0A3FEE0A3F5207808E0A3F608DFFAE048
:1002E300A3FFE0A3C0E0E0A3C0E0E0A3C0E0E0A37D
:1002F300C0E0E0A3C0E010AF0885821085831180C1
:1003030008858210858311D2AFD083D0820200FB8F
:10031300C0D02510C582C0E0E51134FFC583C0E01D
:10032300E510C3958224F310AF08858311858210ED
:100333008008858311858210D2AFC8F0A3E9F0A3AA
:10034300EAF0A3EBF0A37908E709F0A3D8FAECF0FD
:10035300A3EDF0A3EEF0A3EFF0A3D0E0F0A3D0E081
:10036300F0A3D0E0F0A3E520F0A3E5F0F0A322850D
:100373001183851082E0C0E0A3E0F9A3E0FAA3E0D3
:10038300FBA37808E0F608A3DFFAE0FCA3E0FDA3F3
:10039300E0FEA3E0FFA3E0C0E0A3E0C0E0A3E0F53C
:1003A300D0A3E0F520A3E0A3F5F010AF08858311F7
:1003B3008582108008858311858210D2AFD082D0C8
:1003C30083D0E0F8D0E03274028000C0E0F404127D
:1003D300023AD0E012020022D083D082ECC0E0EDDA
:1003E300C0E0EEC0E0EFC0E0E493A3FCE493A3FD20
:1003F300E493A3FEE493A3FFEF4E4D4C6015120468
:1004030057EC24FFFCED34FFFDEE34FFFEEF34FF29
:10041300FF80E5E493A3FCE493A3FDE493A3FEE44C
:1004230093A3FFEF4E4D4C6015120494EC24FFFC94
:10043300ED34FFFDEE34FFFEEF34FFFF80E5D0E047
:10044300FFD0E0FED0E0FDD0E0FCE493A3C0E0E405
:1004530093C0E022C0E0C0F088F01201D4A8F040BD
:10046300071201BBA8F0701AA3A3A3A31201D4A877
:10047300F0A3A3A3A34013D0F0D0E0D0E0D0E002D8
:100483000441A3A3A3A3A3A3A3A3A3A3D0F0D0E056
:1004930022C0E0C0F088F01201BBA8F0A3A3A3A37D
:1004A300700BD0F0D0E0D0E0D0E0020441A3A3D0A1
:1004B300F0D0E022C0E074F1120313C2C5E58960F5
:1004C3007E7E008074750801750900EE78081202BB
:1004D3000DE508AF08E5895F605EEEF87900E87521
:1004E300F002A4C8AAF075F000A42AFA75F002E994
:1004F300A42AF9748A28F582740339F583E0F8A3F2
:10050300E0F9E849602EEEF87900E875F002A4C836
:10051300AAF075F000A42AFA75F002E9A42AF97486
:100523008A28F582740339F583E0F8A3E0F583881C
:100533008212025FEFF452890EEEC3940840867F65
:1005430002020372C0E074F1120313C2EBE58A6086
:100553007E7E008074750801750900EE780812022A
:100563000DE508AF08E58A5F605EEEF87900E8758F
:10057300F002A4C8AAF075F000A42AFA75F002E903
:10058300A42AF9749A28F582740339F583E0F8A351
:10059300E0F9E849602EEEF87900E875F002A4C8A6
:1005A300AAF075F000A42AFA75F002E9A42AF974F6
:1005B3009A28F582740339F583E0F8A3E0F583887C
:1005C3008212025FEFF4528A0EEEC3940840867FD4
:1005D30002020372C0E074F1120313C2E8E58B60F8
:1005E3007E7E008074750801750900EE780812029A
:1005F3000DE508AF08E58B5F605EEEF87900E875FE
:10060300F002A4C8AAF075F000A42AFA75F002E972
:10061300A42AF974AA28F582740339F583E0F8A3B0
:10062300E0F9E849602EEEF87900E875F002A4C815
:10063300AAF075F000A42AFA75F002E9A42AF97465
:10064300AA28F582740339F583E0F8A3E0F58388DB
:100653008212025FEFF4528B0EEEC3940540867F45
:1006630002020372C0E074F2120313A2AFE433FE7A
:10067300C2AFE5E9A2E650209003B4E0F8A3E0F9A5
:10068300E849600E9003B4E0F8A3E0F58388821292
:10069300025F759B0053E9BFEEA2E092AF7F0102B8
:1006A3000372C0E0C0D0E8C0E0E9C0E0C082C0830C
:1006B300E5C1C0E0900437E0F8790074B628F5820C
:1006C300740339F583D0E0F0900436E0F8900437F2
:1006D300E0687006E595900438F0900437E0240153
:1006E300900437F0C3948040069004377400F0D030
:1006F30083D082D0E0F9D0E0F8D0D0D0E032C0E0AF
:10070300C0D0E8C0E0C008C009C082C0839004B96B
:10071300E0F89004BAE068700B539AFB9004BB7442
:1007230001F08031C2E99004B9E0F50874012508AD
:100733009004B9F075090074392508F582740435FD
:1007430009F583E0F5C19004B9E0C39480400690B5
:1007530004B97400F0D083D082D009D008D0E0F877
:10076300D0D0D0E03274F71202617E0A7F03120107
:10077300911201557901EEFAEFFB1201858E828FFA
:1007830083E0C2E7F08E828F83E0640570528E822D
:100793008F83E0F97A0B7B031201858E828F83A30B
:1007A300E0A2E55004D2F08002C2F0A2F0E433905C
:1007B30004CAF0780E790388828983A3E0A2E74014
:1007C3000302087A8E828F83A3A3A3E0F890030128
:1007D300E068600302087A9003027401F002087A69
:1007E3008E828F83E024F59004C7F08E828F83E09E
:1007F300F97A0B7B031201858E828F83A3E0A2E536
:100803005004D2F08002C2F0A2F0E4339004CAF0A4
:100813008E828F83A3A3A3A3A3A3A3A3E0F8A3E040
:10082300F99004C3E8F0A3E9F09004C87414F0A3AA
:100833007403F09004C7E0F83395E0F99004C8E03E
:1008430028F8A3E039F988828983E09004CBF08803
:10085300828983A3E0A2E750128E828F83A3E054A0
:10086300DF644170069004CC7401F08E828F83A301
:10087300A3A3E09004C2F012015B1201977F01026F
:1008830002CD74F7120261EAFEEBFF120167E9641D
:100893000170047901806F12015B900308EEF0A3ED
:1008A300EFF09004C87400F0A37400F09003037495
:1008B30001F09004CE1201E89003041201F49003B6
:1008C30008E0F8A3E0F5838882A3A3A3A3E0F912C9
:1008D3000173900308E0F8A3E0F5838882E0FAA3AC
:1008E300E0FB120179900308E0F8A3E0F583888226
:1008F300A3A3E0FAA3E0FB12017F7A2B7B01120191
:100903009D12015579007F010202CDC082C0839000
:1009130004CCE0F9D083D0820200FB74F2120261AE
:100923008A0A8B0BECFEEDFF740E120255E0F508FC
:10093300A3E0F50912015B9004C7E0F83395E0F9F1
:10094300C3E89EE99F500D9004C7E0F50C3395E092
:10095300F50D80048E0C8F0D780C1203CA9004C819
:10096300E0FCA3E0FDAA0AAB0B1201B5740212026C
:1009730020E5084509602612016DE9F50A9004CBCC
:10098300E0F83395E0F9750B00E8C3950AF8E995AB
:100993000BF9850882850983E8F0A3E9F09004CC7C
:1009A3007400F01201559004C7E0F83395E0F9C3E1
:1009B300E89EE99F50079004C7E0F98002EEF97FB3
:1009C300060202CDC082C0839003037401F01201BA
:1009D3008BD083D0820200FB74F41202618A088BED
:1009E300098C0A8D0B53F1FE43F30C53F2F3758616
:1009F3008075C48078081203DB000000000C00003F
:100A030000B00400004E0A60090000560AC012003C
:100A1300005E0A80250000660A403800006E0A0066
:100A23004B0000760A807000007E0A009600008664
:100A33000A00E100008E0A002C0100960A00C201A0
:100A4300009E0A00840300A60AAE0A75C23B75C560
:100A530005805E75C23B75C506805675C23B75C57C
:100A630007804E75C23B75C508804675C2D875C5EB
:100A730008803E75C23B75C509803675C2D875C5F9
:100A830009802E75C23B75C50A802675C2D875C507
:100A93000A801E75C23B75C50B801675C2D875C515
:100AA3000B800E75C2D875C50C800675C23B75C523
:100AB3000A75C402438640D2AA75C10090043674F5
:100AC30000F09004377400F09004B97400F09004BF
:100AD300BA7400F09004387400F09004BB7400F012
:100AE3007F040202CDC082C083906189E04460F03C
:100AF30090619074D5F09061FA7409F09061B274CA
:100B030015F09061AE7400F01201977900D083D094
:100B1300820200FB79490200FBC082C08375F005A5
:100B2300E9A424D490618FF0D083D0820200FBC06B
:100B330082C083EA906174F0E4EBFA906175F0D0BF
:100B430083D0820200FBC082C083EA906172F0E42A
:100B5300EBFA906173F0D083D0820200FBC082C0B5
:100B6300838011E5D98A828B83F08A828B83A3AA3F
:100B730082AB8319E9C3940150E9D083D082020088
:100B8300FB75E1EC75E1E30200FBC082C083906179
:100B9300A3E0C2E6F0539AFED083D0820200FBC0EA
:100BA30082C0839061A3E0D2E6F0439A01D083D060
:100BB300820200FBC082C083A2AFE433F8C2AF90CD
:100BC30003B4EAF0A3EBF0E8A2E092AFD083D082C3
:100BD3000200FBC082C0839004BE7434F0A374127D
:100BE300F09004C07415F09004BC7402F0A3740078
:100BF300F09004C17401F07ABC7B04120131E96402
:100C03000160F4120143D083D0820200FB7C007D9B
:100C130000801EE82401F8E93400F9C3E89417E9D9
:100C23009402A2D265D03340EAEC2401FCED3400F7
:100C3300FDC3EC9AED9BA2D265D0335006780079C0
:100C43000080D80200FB1201491201A953F4E443C6
:100C5300FE1B75900075F47F75F5FE75FE8075FFBC
:100C630001800675908075A001120137E9601BE4CD
:100C7300F508F50978081203CA7C017D007AD67B52
:100C83000412013D7402120220E99004D6E06005CB
:100C93001460D080D47AB87B0B1201AF75900075C5
:100CA300A00080C574F6120261740A120255E0FEB8
:100CB300A3E0FFEAF8EBF980188C828D83E0888249
:100CC3008983F0A3A882A9838C828D83A3AC82AD90
:100CD300838E088F09E50824FF1EE50934FFFFE52D
:100CE30008450970D47F020202CDE5C65480F8534B
:100CF300BEFBE59DA2E550FAE59DA2E240F4007437
:100D030001697007744948F5C68005E9700288C611
:100D1300E5C6F8E59EFAE86A70F943BE040200FBF3
:100D2300C082C0831201619004D21201E81201A3B0
:100D3300120155D083D0820200FBC082C0837900A8
:100D430012014FD083D0820200FBD2AF0200FBC25C
:040D5300AF0200FBF0
:04000005000000E314
:00000001FF
