:020000040000FA
:030000000200B249
:10007B000200E500000080FB1200DCB90003020067
:10008B009CE4900001780279018002F0A3D8FCD99E
:10009B00FA75821A75830174001200BE75827E7523
:1000AB00830074001200BE75D0007581BF759F0070
:1000BB00020083C09FF59FE473D09F22D083D08230
:1000CB00C09FE493C0E0740193C0E0740293F59F6A
:1000DB00227901221200C7070100C0E0C0D0C08204
:1000EB00C083E58AA2E250069000017401F0758A84
:1000FB0000C2EBD083D082D0D0D0E032EAF8EBF95B
:10010B00E824FFFAE934FFFBE84970F00200C4531E
:10011B00F4FC43FE03759000D2AF439A10438D0459
:10012B00438C02900001E060FA7508587509027E55
:10013B00017F008021759003EEFAEFFB1200DF7553
:10014B009000E508C39EFAE5099FFB1200DFEE2441
:10015B0001FEEF3400FFC3EE9508EF9509A2D265BF
:10016B00D03340D1E50824FFFEE50934FFFFC3EE91
:10017B009401EF9400A2D265D03340A7759003EEA3
:10018B00FAEFFB1200DF759000E508C39EFAE50954
:0F019B009FFB1200DFEE24FFFEEF34FFFF80CF4B
:04000005000000B245
:00000001FF
